:100000000C942D000C9447010C9447010C9447016B
:100010000C9447010C9447010C9447010C94470140
:100020000C9447010C9447010C9447010C94470130
:100030000C9447010C9447010C9447010C94470120
:100040000C9447010C9447010C9447010C94470110
:100050000C94470100600061800011241FBECFE5B1
:10006000D8E0DEBFCDBFE4E5F0E040E017C0B591D9
:10007000A59135912591059107FD0CC0959185912C
:10008000EF01F92FE82F05900D92A217B307D9F7CA
:10009000FE0104C01D92A217B307E1F7E935F4078A
:0E00A00031F70E94C0000C945500F894FFCF79
:1000AE008130F9F030F08230A1F1833009F449C08B
:1000BE000895413041F018F0423051F008958AB35E
:1000CE00682B6ABB08958AB3609568236ABB08954E
:1000DE008AB3962F909589238ABB8BB3682B6BBB03
:1000EE000895413041F018F0423051F0089587B331
:1000FE00682B67BB089587B36095682367BB089527
:10010E0087B3962F9095892387BB88B3682B68BBDE
:10011E000895413041F018F0423051F0089584B303
:10012E00682B64BB08958AB3609568236ABB0895F3
:10013E0084B3962F9095892384BB85B3682B65BBBA
:10014E000895413041F018F0423051F0089582B3D5
:10015E00682B62BB089582B36095682362BB0895D5
:10016E0082B3962F9095892382BB82B3682B62BB94
:02017E000895E2
:1001800042E061E080E00E94570042E062E080E0EF
:100190000E94570042E064E080E00E94570040E087
:1001A00061E081E00E94570040E062E081E00E944F
:1001B000570040E064E081E00E94570087E690E04D
:1001C0000E943C0161E080E00E94FE00811103C0BA
:1001D00081E60E94230162E080E00E94FE0081111E
:1001E00003C082E60E94230164E080E00E94FE00DA
:0C01F0008111E8CF83E60E942301E4CFD8
:1001FC00813059F028F0823069F0833081F01BC0D7
:10020C0089B3682389F091E016C086B3682371F036
:10021C0091E011C083B3682359F091E00CC080B316
:10022C00682341F091E007C090E005C090E003C066
:0A023C0090E001C090E0892F0895C2
:10024600109260005D9B14C08CB909C08F5F8093CB
:1002560060008FE99FE00197F1F700C000005E990A
:1002660004C0809160008A3088F38BB180648BB9BA
:020276000895E9
:100278002AB120612AB92AB128602AB926E820BD06
:0602880089B990BD089544
:04028E000C940000CC
:00000001FF
