:100000000C942A000C945B010C945B010C945B0132
:100010000C945B010C945B010C945B010C945B01F0
:100020000C945B010C945B010C945B010C945B01E0
:100030000C945B010C945B010C945B010C945B01D0
:100040000C945B010C945B010C945B010C945B01C0
:100050000C945B0111241FBECFE5D8E0DEBFCDBFFD
:10006000E4E5F0E040E017C0B591A5913591259108
:10007000059107FD0CC095918591EF01F92FE82FAF
:1000800005900D92A217B307D9F7FE0104C01D9287
:10009000A217B307E1F7E435F40731F70E94BD007A
:0800A0000C945200F894FFCF0C
:1000A8008130F9F030F08230A1F1833009F449C091
:1000B8000895413041F018F0423051F008958AB364
:1000C800682B6ABB08958AB3609568236ABB089554
:1000D8008AB3962F909589238ABB8BB3682B6BBB09
:1000E8000895413041F018F0423051F0089587B337
:1000F800682B67BB089587B36095682367BB08952D
:1001080087B3962F9095892387BB88B3682B68BBE4
:100118000895413041F018F0423051F0089584B309
:10012800682B64BB08958AB3609568236ABB0895F9
:1001380084B3962F9095892384BB85B3682B65BBC0
:100148000895413041F018F0423051F0089582B3DB
:10015800682B62BB089582B36095682362BB0895DB
:1001680082B3962F9095892382BB82B3682B62BB9A
:020178000895E8
:10017A00CF93DF931F92CDB7DEB740E061E080E016
:10018A000E94540040E062E080E00E94540040E097
:10019A0064E080E00E94540087E690E00E944A01F1
:1001AA00CE0101960E9455018981813681F441E090
:1001BA0061E080E00E940E0140E062E080E00E947F
:1001CA000E0141E064E080E00E940E01E9CF823630
:1001DA0081F440E061E080E00E940E0141E062E0CB
:1001EA0080E00E940E0141E064E080E00E940E017E
:1001FA00D7CF40E061E080E00E940E0140E062E07B
:10020A0080E00E940E0140E064E080E00E940E015E
:02021A00C7CF4C
:10021C00813099F028F08230E9F0833041F1089573
:10022C00442331F0413079F58BB3682B6BBB0895C7
:10023C008BB3609568236BBB0895442331F0413038
:10024C0011F588B3682B68BB089588B36095682353
:10025C0068BB0895442331F04130A9F485B3682B71
:10026C0065BB089585B36095682365BB08954423E9
:10027C0031F0413041F482B3682B62BB089582B3F4
:08028C006095682362BB089530
:100294002AB120612AB92AB128602AB926E820BDEA
:0602A40089B990BD089528
:0C02AA005F9B03C02CB1FC012083089571
:0402B6000C940000A4
:00000001FF
